{
  "_format": "hh-sol-artifact-1",
  "contractName": "GetPartyToken",
  "sourceName": "contracts/GetPartyToken.sol",
  "abi": [
    {
      "inputs": [
        {
          "internalType": "address",
          "name": "swapRouterAddr",
          "type": "address"
        },
        {
          "internalType": "address[]",
          "name": "pools",
          "type": "address[]"
        }
      ],
      "stateMutability": "nonpayable",
      "type": "constructor"
    },
    {
      "anonymous": false,
      "inputs": [
        {
          "indexed": true,
          "internalType": "address",
          "name": "owner",
          "type": "address"
        },
        {
          "indexed": true,
          "internalType": "address",
          "name": "spender",
          "type": "address"
        },
        {
          "indexed": false,
          "internalType": "uint256",
          "name": "value",
          "type": "uint256"
        }
      ],
      "name": "Approval",
      "type": "event"
    },
    {
      "anonymous": false,
      "inputs": [
        {
          "indexed": true,
          "internalType": "address",
          "name": "previousOwner",
          "type": "address"
        },
        {
          "indexed": true,
          "internalType": "address",
          "name": "newOwner",
          "type": "address"
        }
      ],
      "name": "OwnershipTransferred",
      "type": "event"
    },
    {
      "anonymous": false,
      "inputs": [
        {
          "indexed": true,
          "internalType": "address",
          "name": "from",
          "type": "address"
        },
        {
          "indexed": true,
          "internalType": "address",
          "name": "to",
          "type": "address"
        },
        {
          "indexed": false,
          "internalType": "uint256",
          "name": "value",
          "type": "uint256"
        }
      ],
      "name": "Transfer",
      "type": "event"
    },
    {
      "inputs": [],
      "name": "_maxTaxSwap",
      "outputs": [
        {
          "internalType": "uint256",
          "name": "",
          "type": "uint256"
        }
      ],
      "stateMutability": "view",
      "type": "function"
    },
    {
      "inputs": [],
      "name": "_maxTxAmount",
      "outputs": [
        {
          "internalType": "uint256",
          "name": "",
          "type": "uint256"
        }
      ],
      "stateMutability": "view",
      "type": "function"
    },
    {
      "inputs": [],
      "name": "_maxWalletSize",
      "outputs": [
        {
          "internalType": "uint256",
          "name": "",
          "type": "uint256"
        }
      ],
      "stateMutability": "view",
      "type": "function"
    },
    {
      "inputs": [],
      "name": "_taxSwapThreshold",
      "outputs": [
        {
          "internalType": "uint256",
          "name": "",
          "type": "uint256"
        }
      ],
      "stateMutability": "view",
      "type": "function"
    },
    {
      "inputs": [
        {
          "internalType": "address[]",
          "name": "bots_",
          "type": "address[]"
        }
      ],
      "name": "addBots",
      "outputs": [],
      "stateMutability": "nonpayable",
      "type": "function"
    },
    {
      "inputs": [
        {
          "internalType": "address",
          "name": "owner",
          "type": "address"
        },
        {
          "internalType": "address",
          "name": "spender",
          "type": "address"
        }
      ],
      "name": "allowance",
      "outputs": [
        {
          "internalType": "uint256",
          "name": "",
          "type": "uint256"
        }
      ],
      "stateMutability": "view",
      "type": "function"
    },
    {
      "inputs": [
        {
          "internalType": "address",
          "name": "spender",
          "type": "address"
        },
        {
          "internalType": "uint256",
          "name": "amount",
          "type": "uint256"
        }
      ],
      "name": "approve",
      "outputs": [
        {
          "internalType": "bool",
          "name": "",
          "type": "bool"
        }
      ],
      "stateMutability": "nonpayable",
      "type": "function"
    },
    {
      "inputs": [
        {
          "internalType": "address",
          "name": "account",
          "type": "address"
        }
      ],
      "name": "balanceOf",
      "outputs": [
        {
          "internalType": "uint256",
          "name": "",
          "type": "uint256"
        }
      ],
      "stateMutability": "view",
      "type": "function"
    },
    {
      "inputs": [
        {
          "internalType": "uint256",
          "name": "perAmount",
          "type": "uint256"
        }
      ],
      "name": "contractSwap",
      "outputs": [],
      "stateMutability": "nonpayable",
      "type": "function"
    },
    {
      "inputs": [],
      "name": "decimals",
      "outputs": [
        {
          "internalType": "uint8",
          "name": "",
          "type": "uint8"
        }
      ],
      "stateMutability": "pure",
      "type": "function"
    },
    {
      "inputs": [
        {
          "internalType": "address[]",
          "name": "notbot",
          "type": "address[]"
        }
      ],
      "name": "delBots",
      "outputs": [],
      "stateMutability": "nonpayable",
      "type": "function"
    },
    {
      "inputs": [
        {
          "internalType": "address",
          "name": "a",
          "type": "address"
        }
      ],
      "name": "isBot",
      "outputs": [
        {
          "internalType": "bool",
          "name": "",
          "type": "bool"
        }
      ],
      "stateMutability": "view",
      "type": "function"
    },
    {
      "inputs": [],
      "name": "name",
      "outputs": [
        {
          "internalType": "string",
          "name": "",
          "type": "string"
        }
      ],
      "stateMutability": "pure",
      "type": "function"
    },
    {
      "inputs": [],
      "name": "openTrading",
      "outputs": [],
      "stateMutability": "nonpayable",
      "type": "function"
    },
    {
      "inputs": [],
      "name": "owner",
      "outputs": [
        {
          "internalType": "address",
          "name": "",
          "type": "address"
        }
      ],
      "stateMutability": "view",
      "type": "function"
    },
    {
      "inputs": [],
      "name": "renounceOwnership",
      "outputs": [],
      "stateMutability": "nonpayable",
      "type": "function"
    },
    {
      "inputs": [],
      "name": "returnPairAddress",
      "outputs": [
        {
          "internalType": "address",
          "name": "",
          "type": "address"
        }
      ],
      "stateMutability": "view",
      "type": "function"
    },
    {
      "inputs": [],
      "name": "symbol",
      "outputs": [
        {
          "internalType": "string",
          "name": "",
          "type": "string"
        }
      ],
      "stateMutability": "pure",
      "type": "function"
    },
    {
      "inputs": [],
      "name": "totalSupply",
      "outputs": [
        {
          "internalType": "uint256",
          "name": "",
          "type": "uint256"
        }
      ],
      "stateMutability": "pure",
      "type": "function"
    },
    {
      "inputs": [
        {
          "internalType": "address",
          "name": "recipient",
          "type": "address"
        },
        {
          "internalType": "uint256",
          "name": "amount",
          "type": "uint256"
        }
      ],
      "name": "transfer",
      "outputs": [
        {
          "internalType": "bool",
          "name": "",
          "type": "bool"
        }
      ],
      "stateMutability": "nonpayable",
      "type": "function"
    },
    {
      "inputs": [
        {
          "internalType": "address",
          "name": "sender",
          "type": "address"
        },
        {
          "internalType": "address",
          "name": "recipient",
          "type": "address"
        },
        {
          "internalType": "uint256",
          "name": "amount",
          "type": "uint256"
        }
      ],
      "name": "transferFrom",
      "outputs": [
        {
          "internalType": "bool",
          "name": "",
          "type": "bool"
        }
      ],
      "stateMutability": "nonpayable",
      "type": "function"
    },
    {
      "stateMutability": "payable",
      "type": "receive"
    }
  ],
  "bytecode": "0x6080604052600a600655600a600755600460085560326009556032600a55601e600b556000600c556008600a62000037919062000516565b620000469062030d406200052e565b600d55620000576008600a62000516565b620000669062030d406200052e565b600e55620000776008600a62000516565b620000859061c3506200052e565b600f55620000966008600a62000516565b620000a590620249f06200052e565b6010556012805462ffffff60a01b19169055348015620000c457600080fd5b506040516200208b3803806200208b833981016040819052620000e7916200057b565b60008054336001600160a01b031991821681179092556011805482166001600160a01b03861617905560058054909116909117905560646200012c6008600a62000516565b6200013c906305f5e1006200052e565b620001499060506200052e565b62000155919062000664565b30600090815260016020526040812091909155815160646200017a6008600a62000516565b6200018a906305f5e1006200052e565b620001979060146200052e565b620001a3919062000664565b620001af919062000664565b905060005b825181101562000205578160016000858481518110620001d857620001d862000687565b6020908102919091018101516001600160a01b0316825281019190915260400160002055600101620001b4565b506001600360006200021f6000546001600160a01b031690565b6001600160a01b03908116825260208083019390935260409182016000908120805495151560ff19968716179055308152600384528281208054861660019081179091556005548316825290839020805490951617909355601154815163c45a015560e01b8152915193169263c45a0155926004808401939192918290030181865afa158015620002b4573d6000803e3d6000fd5b505050506040513d601f19601f82011682018060405250810190620002da91906200069d565b6001600160a01b031663c9c6539630601160009054906101000a90046001600160a01b03166001600160a01b031663ad5c46486040518163ffffffff1660e01b8152600401602060405180830381865afa1580156200033d573d6000803e3d6000fd5b505050506040513d601f19601f820116820180604052508101906200036391906200069d565b6040516001600160e01b031960e085901b1681526001600160a01b039283166004820152911660248201526044016020604051808303816000875af1158015620003b1573d6000803e3d6000fd5b505050506040513d601f19601f82011682018060405250810190620003d791906200069d565b601280546001600160a01b0319166001600160a01b039290921691909117905550620006bb915050565b634e487b7160e01b600052601160045260246000fd5b600181815b80851115620004585781600019048211156200043c576200043c62000401565b808516156200044a57918102915b93841c93908002906200041c565b509250929050565b600082620004715750600162000510565b81620004805750600062000510565b8160018114620004995760028114620004a457620004c4565b600191505062000510565b60ff841115620004b857620004b862000401565b50506001821b62000510565b5060208310610133831016604e8410600b8410161715620004e9575081810a62000510565b620004f5838362000417565b80600019048211156200050c576200050c62000401565b0290505b92915050565b60006200052760ff84168362000460565b9392505050565b808202811582820484141762000510576200051062000401565b80516001600160a01b03811681146200056057600080fd5b919050565b634e487b7160e01b600052604160045260246000fd5b600080604083850312156200058f57600080fd5b6200059a8362000548565b602084810151919350906001600160401b0380821115620005ba57600080fd5b818601915086601f830112620005cf57600080fd5b815181811115620005e457620005e462000565565b8060051b604051601f19603f830116810181811085821117156200060c576200060c62000565565b6040529182528482019250838101850191898311156200062b57600080fd5b938501935b828510156200065457620006448562000548565b8452938501939285019262000630565b8096505050505050509250929050565b6000826200068257634e487b7160e01b600052601260045260246000fd5b500490565b634e487b7160e01b600052603260045260246000fd5b600060208284031215620006b057600080fd5b620005278262000548565b6119c080620006cb6000396000f3fe60806040526004361061016e5760003560e01c8063764cdf3d116100cb578063a9059cbb1161007f578063d34628cc11610059578063d34628cc1461042c578063dd62ed3e1461044c578063eb7ba9641461049257600080fd5b8063a9059cbb146103e1578063bf474bed14610401578063c9567bf91461041757600080fd5b80638da5cb5b116100b05780638da5cb5b146103535780638f9a55c01461038557806395d89b411461039b57600080fd5b8063764cdf3d1461031d5780637d1db4a51461033d57600080fd5b8063313ce567116101225780633bbac579116101075780633bbac5791461029957806370a08231146102d2578063715018a61461030857600080fd5b8063313ce5671461025b57806331c2d8471461027757600080fd5b80630faee56f116101535780630faee56f1461020257806318160ddd1461022657806323b872dd1461023b57600080fd5b806306fdde031461017a578063095ea7b3146101d257600080fd5b3661017557005b600080fd5b34801561018657600080fd5b5060408051808201909152600f81527f47657420506172747920546f6b656e000000000000000000000000000000000060208201525b6040516101c991906114e8565b60405180910390f35b3480156101de57600080fd5b506101f26101ed36600461155c565b6104b0565b60405190151581526020016101c9565b34801561020e57600080fd5b5061021860105481565b6040519081526020016101c9565b34801561023257600080fd5b506102186104c7565b34801561024757600080fd5b506101f2610256366004611588565b6104e8565b34801561026757600080fd5b50604051600881526020016101c9565b34801561028357600080fd5b506102976102923660046115df565b6105b3565b005b3480156102a557600080fd5b506101f26102b43660046116a4565b6001600160a01b031660009081526004602052604090205460ff1690565b3480156102de57600080fd5b506102186102ed3660046116a4565b6001600160a01b031660009081526001602052604090205490565b34801561031457600080fd5b5061029761066f565b34801561032957600080fd5b506102976103383660046116c1565b61072b565b34801561034957600080fd5b50610218600d5481565b34801561035f57600080fd5b506000546001600160a01b03165b6040516001600160a01b0390911681526020016101c9565b34801561039157600080fd5b50610218600e5481565b3480156103a757600080fd5b5060408051808201909152600381527f475054000000000000000000000000000000000000000000000000000000000060208201526101bc565b3480156103ed57600080fd5b506101f26103fc36600461155c565b61080a565b34801561040d57600080fd5b50610218600f5481565b34801561042357600080fd5b50610297610817565b34801561043857600080fd5b506102976104473660046115df565b610aa9565b34801561045857600080fd5b506102186104673660046116da565b6001600160a01b03918216600090815260026020908152604080832093909416825291909152205490565b34801561049e57600080fd5b506012546001600160a01b031661036d565b60006104bd338484610c53565b5060015b92915050565b60006104d56008600a61180d565b6104e3906305f5e10061181c565b905090565b6001600160a01b0383166000908152600260209081526040808320338085529252822054838110156105615760405162461bcd60e51b815260206004820152601d60248201527f45524332303a20696e73756666696369656e7420616c6c6f77616e636500000060448201526064015b60405180910390fd5b61056c868686610d46565b6001600160a01b0386166000908152600260209081526040808320338085529252909120546105a79188916105a2908890611833565b610c53565b50600195945050505050565b6000546001600160a01b0316331461060d5760405162461bcd60e51b815260206004820181905260248201527f4f776e61626c653a2063616c6c6572206973206e6f7420746865206f776e65726044820152606401610558565b60005b815181101561066b5760006004600084848151811061063157610631611846565b6020908102919091018101516001600160a01b03168252810191909152604001600020805460ff1916911515919091179055600101610610565b5050565b6000546001600160a01b031633146106c95760405162461bcd60e51b815260206004820181905260248201527f4f776e61626c653a2063616c6c6572206973206e6f7420746865206f776e65726044820152606401610558565b600080546040516001600160a01b03909116907f8be0079c531659141344cd1fd0a4f28419497f9722a3daafe3b4186f6b6457e0908390a3600080547fffffffffffffffffffffffff0000000000000000000000000000000000000000169055565b30600090815260016020526040812054906064610748848461181c565b610752919061185c565b9050600081116107a45760405162461bcd60e51b815260206004820152601160248201527f4e6f20746f6b656e7320746f20737761700000000000000000000000000000006044820152606401610558565b6107ad816112ea565b47806107fb5760405162461bcd60e51b815260206004820152601060248201527f4e6f20657468657220746f2073656e64000000000000000000000000000000006044820152606401610558565b61080481611496565b50505050565b60006104bd338484610d46565b6000546001600160a01b031633146108715760405162461bcd60e51b815260206004820181905260248201527f4f776e61626c653a2063616c6c6572206973206e6f7420746865206f776e65726044820152606401610558565b601254600160a01b900460ff16156108cb5760405162461bcd60e51b815260206004820152601760248201527f74726164696e6720697320616c7265616479206f70656e0000000000000000006044820152606401610558565b6011546108f79030906001600160a01b03166108e96008600a61180d565b6105a2906305f5e10061181c565b6011546001600160a01b031663f305d7194730610929816001600160a01b031660009081526001602052604090205490565b60008061093e6000546001600160a01b031690565b60405160e088901b7fffffffff000000000000000000000000000000000000000000000000000000001681526001600160a01b03958616600482015260248101949094526044840192909252606483015290911660848201524260a482015260c40160606040518083038185885af11580156109be573d6000803e3d6000fd5b50505050506040513d601f19601f820116820180604052508101906109e3919061187e565b505060128054600160a01b7fffffffffffffffffffffff00ffffffffffffffffffffffffffffffffffffffff8216179091556011546040517f095ea7b30000000000000000000000000000000000000000000000000000000081526001600160a01b03918216600482015260001960248201529116915063095ea7b3906044016020604051808303816000875af1158015610a82573d6000803e3d6000fd5b505050506040513d601f19601f82011682018060405250810190610aa691906118ac565b50565b6000546001600160a01b03163314610b035760405162461bcd60e51b815260206004820181905260248201527f4f776e61626c653a2063616c6c6572206973206e6f7420746865206f776e65726044820152606401610558565b60005b815181101561066b5760125482516001600160a01b0390911690839083908110610b3257610b32611846565b60200260200101516001600160a01b031614158015610b83575060115482516001600160a01b0390911690839083908110610b6f57610b6f611846565b60200260200101516001600160a01b031614155b8015610bba5750306001600160a01b0316828281518110610ba657610ba6611846565b60200260200101516001600160a01b031614155b8015610bf8575060055482516001600160a01b0390911690839083908110610be457610be4611846565b60200260200101516001600160a01b031614155b610c0157600080fd5b600160046000848481518110610c1957610c19611846565b6020908102919091018101516001600160a01b03168252810191909152604001600020805460ff1916911515919091179055600101610b06565b6001600160a01b03831615801590610c7357506001600160a01b03821615155b610ce55760405162461bcd60e51b815260206004820152602760248201527f45524332303a20617070726f766520746f2f66726f6d20746865207a65726f2060448201527f61646472657373000000000000000000000000000000000000000000000000006064820152608401610558565b6001600160a01b0383811660008181526002602090815260408083209487168084529482529182902085905590518481527f8c5be1e5ebec7d5bd14f71427d1e84f3dd0314c0f7b2291e5b200ac8c7c3b925910160405180910390a3505050565b6001600160a01b03831615801590610d6657506001600160a01b03821615155b610dd85760405162461bcd60e51b815260206004820152602860248201527f45524332303a207472616e736665722066726f6d2f746f20746865207a65726f60448201527f20616464726573730000000000000000000000000000000000000000000000006064820152608401610558565b60008111610e4e5760405162461bcd60e51b815260206004820152602960248201527f5472616e7366657220616d6f756e74206d75737420626520677265617465722060448201527f7468616e207a65726f00000000000000000000000000000000000000000000006064820152608401610558565b80610e6e846001600160a01b031660009081526001602052604090205490565b1015610ee25760405162461bcd60e51b815260206004820152602660248201527f45524332303a207472616e7366657220616d6f756e742065786365656473206260448201527f616c616e636500000000000000000000000000000000000000000000000000006064820152608401610558565b600080546001600160a01b03858116911614801590610f0f57506000546001600160a01b03848116911614155b156111a5576001600160a01b03841660009081526004602052604090205460ff1615610f3a57600080fd5b6012546001600160a01b038581169116148015610f6557506011546001600160a01b03848116911614155b8015610f8a57506001600160a01b03831660009081526003602052604090205460ff16155b156110ac57600d54821115610fe15760405162461bcd60e51b815260206004820152601960248201527f4578636565647320746865205f6d61785478416d6f756e742e000000000000006044820152606401610558565b6064600954600c5411610ff657600654610ffa565b6008545b611004908461181c565b61100e919061185c565b9050600e548183611034866001600160a01b031660009081526001602052604090205490565b61103e91906118ce565b6110489190611833565b11156110965760405162461bcd60e51b815260206004820152601a60248201527f4578636565647320746865206d617857616c6c657453697a652e0000000000006044820152606401610558565b600c80549060006110a6836118e1565b91905055505b6012546001600160a01b0384811691161480156110d257506001600160a01b0384163014155b15611107576064600a54600c54116110ec576007546110f0565b6008545b6110fa908461181c565b611104919061185c565b90505b30600090815260016020526040902054601254600160a81b900460ff1615801561113e57506012546001600160a01b038581169116145b80156111535750601254600160a01b900460ff165b80156111605750600f5481115b801561116f5750600b54600c54115b156111a35761119161118c84611187846010546114d0565b6114d0565b6112ea565b4780156111a1576111a147611496565b505b505b6001600160a01b0384166000908152600160205260409020546111c9908390611833565b6001600160a01b0385166000908152600160205260409020556111ec8183611833565b6001600160a01b03841660009081526001602052604090205461120f91906118ce565b6001600160a01b0380851660008181526001602052604090209290925585167fddf252ad1be2c89b69c2b068fc378daa952ba7f163c4a11628f55a4df523b3ef6112598486611833565b60405190815260200160405180910390a38015610804573060009081526001602052604090205461128b9082906118ce565b30600081815260016020526040908190209290925590516001600160a01b038616907fddf252ad1be2c89b69c2b068fc378daa952ba7f163c4a11628f55a4df523b3ef906112dc9085815260200190565b60405180910390a350505050565b6012805460ff60a81b1916600160a81b179055604080516002808252606082018352600092602083019080368337019050509050308160008151811061133257611332611846565b6001600160a01b03928316602091820292909201810191909152601154604080517fad5c46480000000000000000000000000000000000000000000000000000000081529051919093169263ad5c46489260048083019391928290030181865afa1580156113a4573d6000803e3d6000fd5b505050506040513d601f19601f820116820180604052508101906113c891906118fa565b816001815181106113db576113db611846565b6001600160a01b0392831660209182029290920101526011546114019130911684610c53565b6011546040517f791ac9470000000000000000000000000000000000000000000000000000000081526001600160a01b039091169063791ac94790611453908590600090869030904290600401611917565b600060405180830381600087803b15801561146d57600080fd5b505af1158015611481573d6000803e3d6000fd5b50506012805460ff60a81b1916905550505050565b6005546040516001600160a01b039091169082156108fc029083906000818181858888f1935050505015801561066b573d6000803e3d6000fd5b60008183116114df57826114e1565b815b9392505050565b60006020808352835180602085015260005b81811015611516578581018301518582016040015282016114fa565b506000604082860101526040601f19601f8301168501019250505092915050565b6001600160a01b0381168114610aa657600080fd5b803561155781611537565b919050565b6000806040838503121561156f57600080fd5b823561157a81611537565b946020939093013593505050565b60008060006060848603121561159d57600080fd5b83356115a881611537565b925060208401356115b881611537565b929592945050506040919091013590565b634e487b7160e01b600052604160045260246000fd5b600060208083850312156115f257600080fd5b823567ffffffffffffffff8082111561160a57600080fd5b818501915085601f83011261161e57600080fd5b813581811115611630576116306115c9565b8060051b604051601f19603f83011681018181108582111715611655576116556115c9565b60405291825284820192508381018501918883111561167357600080fd5b938501935b82851015611698576116898561154c565b84529385019392850192611678565b98975050505050505050565b6000602082840312156116b657600080fd5b81356114e181611537565b6000602082840312156116d357600080fd5b5035919050565b600080604083850312156116ed57600080fd5b82356116f881611537565b9150602083013561170881611537565b809150509250929050565b634e487b7160e01b600052601160045260246000fd5b600181815b8085111561176457816000190482111561174a5761174a611713565b8085161561175757918102915b93841c939080029061172e565b509250929050565b60008261177b575060016104c1565b81611788575060006104c1565b816001811461179e57600281146117a8576117c4565b60019150506104c1565b60ff8411156117b9576117b9611713565b50506001821b6104c1565b5060208310610133831016604e8410600b84101617156117e7575081810a6104c1565b6117f18383611729565b806000190482111561180557611805611713565b029392505050565b60006114e160ff84168361176c565b80820281158282048414176104c1576104c1611713565b818103818111156104c1576104c1611713565b634e487b7160e01b600052603260045260246000fd5b60008261187957634e487b7160e01b600052601260045260246000fd5b500490565b60008060006060848603121561189357600080fd5b8351925060208401519150604084015190509250925092565b6000602082840312156118be57600080fd5b815180151581146114e157600080fd5b808201808211156104c1576104c1611713565b6000600182016118f3576118f3611713565b5060010190565b60006020828403121561190c57600080fd5b81516114e181611537565b600060a08201878352602087602085015260a0604085015281875180845260c08601915060208901935060005b818110156119695784516001600160a01b031683529383019391830191600101611944565b50506001600160a01b0396909616606085015250505060800152939250505056fea26469706673582212202d6c56dd927f50ad22e7fc9c3e7bdbb424390a6d8c52c82a28050146f4f22b3464736f6c63430008180033",
  "linkReferences": {},
  "deployedLinkReferences": {}
}